S016000050726F6A656B745F7A616C5F76322E7372656382
S113000071C000008EC000008CC000008AC00000D7
S113001088C0000086C0000084C0000082C00000C8
S113002080C000007EC000007CC000007AC00000D8
S113003078C0000076C0000074C0000072C00000E8
S113004070C000006EC000006CC000006AC00000F8
S113005093C1000066C0000064C0000062C00000DC
S113006060C0000077C400005CC000005AC00000FB
S113007058C0000090C3000054C0000052C00000EB
S113008050C000004EC000004CC000004AC0000038
S113009048C0000046C0000044C0000042C0000048
S11300A040C000003EC000003CC000003AC0000058
S11300B038C0000036C0000034C0000032C0000068
S11300C030C000002EC000002CC000002AC0000078
S11300D028C0000026C0000024C0000022C0000088
S11300E020C0000011241FBECFEFD1E2DEBFCDBF80
S11300F000E00CBF14E0A0E0B2E0EAEEFEE000E0B5
S11301000BBF02C007900D92A433B107D9F724E0C6
S1130110A4E3B4E001C01D92A734B207E1F7E9D229
S1130120E2C66ECF88E48093B8001092B9000895B7
S113013084EA8093BC00ECEBF0E080818823ECF748
S1130140089584E98093BC00ECEBF0E0808184FDA9
S1130150FDCF08958093BB0084E88093BC00ECEB52
S1130160F0E080818823ECF70895CF93C82FE0DF77
S11301708EE4F0DF8C2FEEDFE4DF83E08A95F1F785
S11301800000CF910895CF93DF9320913404909190
S1130190000230E1839FE0011124822F892B8460C7
S11301A08C2BE3DF38E03A95F1F7000090913404AA
S11301B080910002892B8C2BD8DF38E03A95F1F737
S11301C00000DF91CF910895CF93C82F81E08093F1
S11301D034048C2F82958F70D6DF8C2F8F70D3DFF1
S11301E081E28A95F1F70000CF9108950F931F9350
S11301F0CF93DF93009779F0662369F0EC016150A7
S1130200062F10E00F5F1F4F080F191F8991DCDFC5
S1130210C017D107D9F7DF91CF911F910F9108959E
S1130220CF93C82F1092340482958F70ACDF8C2F3B
S11302308F70A9DF81E28A95F1F70000CF910895CC
S113024082E0EEDF83EC99E00197F1F700C0000053
S1130250089590E4699F800D11248068E1CF08958A
S113026061DF1092340483E08EDF8BED95E001971B
S1130270F1F700C0000083E086DF8BED95E0019785
S1130280F1F700C0000083E07EDF8BED95E001977D
S1130290F1F700C0000082E076DF89EF90E001977B
S11302A0F1F700C000008CE2BBDF88E0B9DF81E039
S11302B0B7DF9FE926E881E0915020408040E1F7D4
S11302C000C0000086E0ACDF8CE0AACF08958091E6
S11302D0390490913A04019769F480913B04909118
S11302E03C04909342048093410410923A04109287
S11302F0390408951D9B07C081E090E09093440465
S11303008093430408958091430490914404019799
S1130310A9F480914104909142040196833091059F
S11303202CF4909342048093410404C0109242043C
S113033010924104109244041092430408952091B1
S11303403D0430913E048091460490E0A90144515B
S11303505109481759072CF42C5E3F4F8217930715
S113036054F021E030E03093400420933F04909314
S11303703E0480933D0408951F920F920FB60F928E
S113038011240BB60F922F933F934F935F936F9368
S11303907F938F939F93AF93BF93EF93FF9397DFD5
S11303A0CEDFFF91EF91BF91AF919F918F917F919C
S11303B06F915F914F913F912F910F900BBE0F90D2
S11303C00FBE0F901F9018958091460487BD089525
S11303D0CF92DF92EF92FF92CF93DF936091460426
S11303E06A3F08F06EC06D3008F474C070E080E0BD
S11303F090E025D423EC35EF48EF50E4D4D46B01DE
S11304007C018FEF87BD20E030E0A901C701B60170
S1130410C6D418163CF5C0E0D0E08FE99FE0019700
S1130420F1F700C0000080913F04909140040197CF
S113043029F41092400410923F0457C08091410463
S113044090914204019709F052C02196BE010D2EED
S1130450000C880B990BF3D3A701960151D3882381
S1130460E4F243C017BC20E030E0A901C701B601A3
S113047096D41816E4F5C0E0D0E08FE99FE0019728
S1130480F1F700C0000080913F049091400401976F
S113049029F41092400410923F0429C08091410431
S11304A090914204019719F52196BE010D2E000C7E
S11304B0880B990BC4D3A701960122D38823ECF2AD
S11304C016C00F2EC12CD12CFAEFEF2EF4E4FF2E20
S11304D0F02D08C00F2EC12CD12CF8ECEF2EF2E435
S11304E0FF2EF02D8FEF87BD96CF17BCC4CFDF91C1
S11304F0CF91FF90EF90DF90CF90089560914604E4
S113050070E080E090E09BD326EF38E24CE351E4C6
S11305104AD420E030E04AE754E48ED220E030E0D0
S113052040E05FE340D420E030E04FE753E4ECD216
S113053053D320E030E024C080E090E0EFE9FFE016
S11305403197F1F700C00000019668177907B1F7F9
S113055027BD80913F0490914004019729F41092A3
S1130560400410923F0435C08091410490914204AC
S1130570029791F52F5F3F4F2115F1E03F0749F1B5
S113058016161706CCF2E4CF80E090E0EFE9FFE026
S11305903197F1F700C00000019668177907B1F7A9
S11305A027BD80913F0490914004019729F4109253
S11305B0400410923F0408958091410490914204B4
S11305C0029751F42150310938F016161706E4F257
S11305D0E7CF2FEF30E0F9CF08951092C5008FECEC
S11305E08093C40088E98093C1008EE08093C200A8
S11305F082E08093C0000895CF93DF9300D01F92D0
S11306001F92CDB7DEB760E080E023DE64E081E0D6
S113061092E0ECDD809146044AE050E0BE016F5F59
S11306207F4F90E023D460E084E013DE63E0CE01EA
S11306300196DCDD60E088E00CDE65E086E092E0B7
S1130640D5DD8091370490913804009741F460E03F
S11306508DE0FFDD63E08CE092E0C8DD11C001971E
S113066041F460E08DE0F5DD63E080E192E0BEDD21
S113067007C060E08DE0EDDD63E084E192E0B6DD8B
S113068061E080E0E6DD65E088E192E0AFDD809145
S1130690410490914204009741F461E086E0D9DD81
S11306A06BE08EE192E0A2DD1CC08130910541F443
S11306B061E086E0CEDD6BE08AE292E097DD11C076
S11306C0029741F461E086E0C4DD6BE085E392E0EB
S11306D08DDD07C061E086E0BCDD6BE080E492E084
S11306E085DD0F900F900F900F900F90DF91CF91B9
S11306F0089573DFB5DDA4DD279A2D9A109280004A
S113070081E08093810080936F00109285001092A5
S1130710840083E480937C0010927E00EAE7F0E09A
S11307208FEA808380818064808384B5836884BDFC
S113073083E085BD789460DF809141049091420408
S1130740009711F441DEF7CF8130910511F440DEBA
S1130750F2CF029781F7D2DEEECFCF93DF93DC01A5
S11307609C919923A9F01196C6ECD0E0E0ECF0E05E
S11307709883908196FFFDCF2FEF89EF90E0215071
S113078080409040E1F700C000009D919111F0CFAE
S1130790DF91CF9108951F920F920FB60F921124FB
S11307A00BB60F922F933F934F935F936F937F9367
S11307B08F939F93AF93BF93EF93FF9380913704ED
S11307C090913804009789F4809178009091790091
S11307D09695879596958795889F9001899F300D6A
S11307E0300D11243093460415C0209143043091F8
S11307F044042130310551F4019741F41092380436
S1130800109237048BE492E0A8DF04C08091350491
S113081080934604FF91EF91BF91AF919F918F9187
S11308207F916F915F914F913F912F910F900BBEEC
S11308300F900FBE0F901F901895CF93DF9300D0A9
S11308401F921F92CDB7DEB781E090E090933804F9
S11308508093370482E992E080DFE6ECF0E0808167
S113086080934504809145048033C8F38091450406
S11308708A33A8F76091450470E060537109072E2C
S1130880000C880B990BDBD120E030E04CEC51E4F8
S11308908AD2A2D1709336046093350486EB92E039
S11308A05CDF4AE050E0BE016F5F7F4F809135040A
S11308B090913604DBD2CE0101964FDF87EC92E0B3
S11308C04CDF0F900F900F900F900F90DF91CF910E
S11308D00895CF93DF9300D000D0CDB7DEB74AE0C0
S11308E050E0BE016F5F7F4F8091410490914204BC
S11308F0BDD28AEC92E031DFCE0101962EDF8091E9
S113090046044AE050E0BE016E5F7F4F90E0AED2F5
S11309108BED92E022DFCE0102961FDF84EF92E09E
S11309201CDF8091370490913804019721F480E111
S113093093E013DF03C084E393E00FDF87EC92E0DE
S11309400CDF26960FB6F894DEBF0FBECDBFDF9145
S1130950CF9108951F920F920FB60F9211240BB6E8
S11309600F922F933F934F935F936F937F938F9344
S11309709F93AF93BF93EF93FF938091C6008093AF
S11309804504809145048233A1F128F48033A9F011
S1130990813309F13DC0833741F0873721F0823735
S11309A0B9F597DF35C049DF33C01092380410928F
S11309B037048AE693E0D1DE2BC081E090E0909387
S11309C03A048093390410923C0410923B0480EB67
S11309D093E0C3DE1DC081E090E090933A048093DD
S11309E0390490933C0480933B048CED93E0B5DE92
S11309F00FC081E090E090933A048093390482E040
S1130A0090E090933C0480933B0488E094E0A5DE5E
S1130A10FF91EF91BF91AF919F918F917F916F91D2
S1130A205F914F913F912F910F900BBE0F900FBE8E
S1130A300F901F9018955058BB27AA270ED075C148
S1130A4066D130F06BD120F031F49F3F11F41EF4E5
S1130A505BC10EF4E095E7FB51C1E92F77D180F338
S1130A60BA17620773078407950718F071F49EF5A7
S1130A708FC10EF4E0950B2EBA2FA02D0B01B901F6
S1130A8090010C01CA01A0011124FF27591B99F000
S1130A90593F50F4503E68F11A16F040A22F232F0C
S1130AA0342F4427585FF3CF469537952795A7955C
S1130AB0F0405395C9F77EF41F16BA0B620B730B03
S1130AC0840BBAF09150A1F0FF0FBB1F661F771F74
S1130AD0881FC2F70EC0BA0F621F731F841F48F429
S1130AE0879577956795B795F7959E3F08F0B3CFAF
S1130AF09395880F08F09927EE0F97958795089599
S1130B00D9D008F481E008950CD00FC107D140F08A
S1130B10FED030F021F45F3F19F0F0C0511139C11B
S1130B20F3C014D198F39923C9F35523B1F3951B5A
S1130B30550BBB27AA2762177307840738F09F5FFA
S1130B405F4F220F331F441FAA1FA9F333D00E2E69
S1130B503AF0E0E830D091505040E695001CCAF7D6
S1130B6029D0FE2F27D0660F771F881FBB1F26179B
S1130B7037074807AB07B0E809F0BB0B802DBF016E
S1130B80FF2793585F4F2AF09E3F510568F0B6C087
S1130B9000C15F3FECF3983EDCF38695779567954B
S1130BA0B795F7959F5FC9F7880F911D969587951F
S1130BB097F90895E1E0660F771F881FBB1F62173E
S1130BC073078407BA0720F0621B730B840BBA0BFC
S1130BD0EE1F88F7E095089504D06894B111D9C048
S1130BE00895BCD088F09F5790F0B92F9927B7513A
S1130BF0A0F0D1F0660F771F881F991F1AF0BA95DD
S1130C00C9F712C0B13081F0C3D0B1E00895C0C0BB
S1130C10672F782F8827B85F39F0B93FCCF38695D2
S1130C2077956795B395D9F73EF49095809570952F
S1130C3061957F4F8F4F9F4F0895E89409C097FBAC
S1130C403EF490958095709561957F4F8F4F9F4F9F
S1130C509923A9F0F92F96E9BB279395F6958795E3
S1130C6077956795B795F111F8CFFAF4BB0F11F4A6
S1130C7060FF1BC06F5F7F4F8F4F9F4F16C088234D
S1130C8011F096E911C0772321F09EE8872F762F83
S1130C9005C0662371F096E8862F70E060E02AF0C4
S1130CA09A95660F771F881FDAF7880F96958795B0
S1130CB097F90895990F0008550FAA0BE0E8FEEF85
S1130CC016161706E807F907C0F012161306E4070C
S1130CD0F50798F0621B730B840B950B39F40A2605
S1130CE061F0232B242B252B21F408950A2609F4E3
S1130CF0A140A6958FEF811D811D089597F99F67E7
S1130D0080E870E060E008959FEF80EC089500248F
S1130D100A941616170618060906089500240A945C
S1130D2012161306140605060895092E0394000CE2
S1130D3011F4882352F0BB0F40F4BF2B11F460FF71
S1130D4004C06F5F7F4F8F4F9F4F089557FD90589A
S1130D50440F551F59F05F3F71F04795880F97FB7B
S1130D60991F61F09F3F79F0879508951216130635
S1130D701406551FF2CF4695F1DF08C01616170664
S1130D801806991FF1CF8695710561050894089599
S1130D90E894BB2766277727CB0197F908958ADF64
S1130DA008F48FEF08950BD0C0CFB1DF28F0B6DF81
S1130DB018F0952309F0A2CFA7CF1124EACFC6DFFC
S1130DC0A0F3959FD1F3950F50E0551F629FF0015A
S1130DD0729FBB27F00DB11D639FAA27F00DB11DB3
S1130DE0AA1F649F6627B00DA11D661F829F22273C
S1130DF0B00DA11D621F739FB00DA11D621F839FC3
S1130E00A00D611D221F749F3327A00D611D231F98
S1130E10849F600D211D822F762F6A2F11249F57E6
S1130E2050408AF0E1F088234AF0EE0FFF1FBB1F09
S1130E30661F771F881F91505040A9F79E3F5105A8
S1130E4070F05CCFA6CF5F3FECF3983EDCF3869561
S1130E5077956795B795F795E7959F5FC1F7FE2B53
S1130E60880F911D9695879597F9089545325105F8
S1130E7018F4423008F004C0FB011082CB0108953D
S1130E80BB274A3031F4992322F4BDE29095819531
S1130E909F4F01C0BB27FB015527AA27880F991F25
S1130EA0AA1FA41710F0A41B83955051B9F7A05D95
S1130EB0AA3308F0A95DA193009779F7B111B19312
S1130EC01192CB0100C0DC01FC01672F71917723E3
S1130ED0E1F7329704C07C916D9370836291AE17F1
S10D0EE0BF07C8F30895F894FFCF8C
S1130EEA084144433A00537465723A0041752E002E
S1130EFA52652E003F3F3F00547279623A005265B0
S1130F0A67756C2E6A61736E2E004D6967616E692E
S1130F1A61202020004D6F642E7A6D2E6A612E00A6
S1130F2A426C6164206F64637A2E002D2D2D535414
S1130F3A4F502C2054525942205245435A4E454749
S1130F4A4F20555354415749414E49412041444346
S1130F5A2057594C41435A4F4E5920286F6E2062EC
S1130F6A7574746F6E2072657175657374292D2D8D
S1130F7A2D002D2D2D54525942205245435A4E4587
S1130F8A474F20555354415749414E494120414402
S1130F9A432D2D2D0A00506F64616E6120776172B2
S1130FAA746F73633A20000A0A000A4E756D6572FB
S1130FBA2046756E6B636A693A20000A5761727437
S1130FCA6F736320506F74656E636A6F6D657472B4
S1130FDA753A20000A54727962207072616379202A
S1130FEA706F74656E636A6F6D657472753A20000A
S1130FFA777069737977616E696520776172746F46
S113100A736369204144432070727A657A20555388
S113101A415254006175746F6D617479637A6E65B7
S113102A2073637A79777977616E6965207761725B
S113103A746F73636920414443207A20706F746526
S113104A6E636A6F6D65747275002D2D2D53544F3E
S113105A502C2054525942205245435A4E45474F28
S113106A20555354415749414E4941204144432054
S113107A57594C41435A4F4E5920286F6E205553A5
S113108A4152542072657175657374292D2D2D0092
S113109A0A2D2D2D5573746177696F6E6F207472E2
S11310AA7962203020286F6E2055534152542072A1
S11310BA657175657374292D2D2D0A000A2D2D2D40
S11310CA5573746177696F6E6F2074727962203117
S11310DA20286F6E205553415254207265717565EC
S11310EA7374292D2D2D0A000A2D2D2D5573746123
S11310FA77696F6E6F2074727962203220286F6E5E
S113110A2055534152542072657175657374292DA3
S107111A2D2D0A0069
S9030000FC
